:100000000C9449000C9428050C9432050C943C0582
:100010000C9446050C9450050C945A050C94280633
:100020000C9464050C9468000C9468000C941116F0
:100030000C941B0C0C94F2040C9408050C946E05A3
:100040000C94E1040C944F0E0C9468000C9468001E
:100050000C9468000C9468000C9468000C94680080
:100060000C94FD040C9468000C9468000C946800D7
:100070000C9468000C9468000C9468000C94680060
:100080000C9468000C9468000C94680000081C181C
:10009000141011241FBECFEFD0E1DEBFCDBF11E0A1
:1000A000A0E0B1E0ECE9F3E300E00BBF02C0079091
:1000B0000D92AC31B107D9F712E0ACE1B1E001C06B
:1000C0001D92AF3BB107E1F70E945C140C94CD196F
:1000D0000C9400008FB7F894992708958FBF089566
:1000E000FC0182819927582F442781819927482B29
:1000F000592BCA01892F9927869586958370907010
:100100008230910559F08330910559F0892B19F40B
:1001100020E030E008C02CE93FEF05C022E030E0ED
:1001200002C028E030E0CA0184E0989F812D992721
:1001300011248230910559F08330910559F0892BB3
:1001400019F480E090E008C08CE99FEF05C082E0E0
:1001500090E002C088E090E0280F391F2A5F3F4FEF
:10016000CF01820F931F0895282F9FB7F89466231D
:1001700049F0E82FFF27E15FFD4F8081882311F0D0
:1001800021E006C0E22FFF27E15FFD4F608320E002
:10019000892F99278FBF822F99270895E82F8FB72E
:1001A000F894282F332790E0FF27E15FFD4F8081EF
:1001B000861709F491E02FBF892F99270895882386
:1001C00011F06E9A08956E980895882311F06F9A31
:1001D00008956F98089580E00E94DF00BA9ABB9856
:1001E000B99AB89A6C9A80E00E94E5006B986A9878
:1001F00081E00E94DF00709A8DB18C7F8DB90895E7
:100200000F931F93CF93DF93182F8FB7F894C82FB6
:10021000DD270C2F61E080E00E94B400882321F0EC
:10022000CFBF85E090E024C0809114018823A1F421
:1002300080912401823081F409C082E080932401FE
:10024000109214010E94EB00B89AC098109311010B
:1002500080E00FBF99270CC080912401882369F3A7
:100260008FB7F894992710920F028FBF81E0F1CFDA
:10027000DF91CF911F910F910895282F9FB7F89488
:10028000E82FFF27EB58FE4F80818F3F81F4E091EC
:10029000BD02E21771F40BC020937A0204C0FF275D
:1002A000EB58FE4F20832093BD0220E007C025E0DD
:1002B00005C080917A028F3F91F7EECF892F992761
:1002C0008FBF822F992708951F93182F81E00E94D6
:1002D000DF001FB9779BFECF8FB199271F9108953B
:1002E0008F929F92AF92BF92CF92DF92EF92FF9246
:1002F0000F931F93CF93DF938FB7F8949927C090F4
:10030000B702D090B8028090070290900802C09186
:10031000E601D091E7012091590130915A01EAE0BC
:10032000AE2EB12CAC0EBD1E2A153B0508F45901AA
:100330008FBF7401EC0EFD1E86010C0F1D1F14C033
:10034000C114D10419F0F801808101C080E00E943D
:1003500064018114910411F0F701808321960894BF
:10036000E11CF11C0F5F1F4FC5010197C817D9078A
:1003700038F381E00E94E5009FB7F894C114D104DE
:1003800031F0CC0EDD1EF60180818FB901C01FB89F
:10039000D093E701C093E601892F99278FBF80E0B2
:1003A00090E0DF91CF911F910F91FF90EF90DF9040
:1003B000CF90BF90AF909F908F9008952FB7F894F3
:1003C000332750935A01409359019093B802809378
:1003D000B70270930802609307021092E70110922F
:1003E000E6012FBF452B29F08FB10E94700199279C
:1003F000089589E00E943D0180E090E008958FB764
:10040000F8949927109211028FBF08957FB7F8943E
:1004100062B720915C0130915D0140915E01509185
:100420005F0106B601FE0FC081B792B7280F311DDC
:10043000411D511D2F5F3F4F4F4F5F4F290F311D02
:10044000411D511D04C0260F311D411D511D872F17
:1004500099278FBFCA01B9010895BC011092B90252
:1004600040E080E090E0EFE2F1E09C01808191814A
:100470008617970799F02630310559F0422F4F5FC4
:10048000C901019636968830910579F74093B902F3
:1004900008954093B90229E030E002C04093B902C8
:1004A000C9010895DF92EF92FF920F931F938FB7C8
:1004B000F894282F3327D22E91B782B746B79817D2
:1004C00011F041FF02C02FBF6AC08091E50188236F
:1004D000E1F10E940602E0900B02F0900C02009104
:1004E0000D0210910E0220916E0130916F0140912A
:1004F0007001509171016E197F09800B910B621789
:1005000073078407950720F01092E50171E01EC083
:100510002E0D3F1D401F511F80915C0190915D0188
:10052000A0915E01B0915F01281B390B4A0B5B0B58
:10053000273E31054105510540F4822F223010F04D
:1005400070E005C070E082E002C070E086EE682FC7
:10055000615000B601FCFDCF82B7681709F46F5FE8
:1005600020915C0130915D0140915E0150915F01ED
:10057000DA01C9010196A11DB11D860F911DA11DB2
:10058000B11D82179307A407B50710F4622F609579
:1005900061BFDFBE772319F08CE00E943D011F91FF
:1005A0000F91FF90EF90DF900895AFB7F894BB27BD
:1005B000E1E0E093E50160930B0270930C028093FD
:1005C0000D0290930E0220936E0130936F014093C1
:1005D000700150937101AFBF0E9452020895EF92D3
:1005E000FF920F931F93CF93DF93182F7B01042F5C
:1005F0008FB7F894C82FDD2760E080E00E94CE001E
:10060000882321F0CFBF80E090E014C0CFBF1064FA
:10061000812F99279093DE018093DD010E94640170
:10062000182F402F5527B70180E090E00E94DE018F
:10063000812F9927DF91CF911F910F91FF90EF901C
:100640000895C09860912D0170912E0141E08FE3D3
:100650000E94EF02089580E8809372011092910148
:100660001092B1021092790210928D010895CF93E9
:10067000DF93FC0115A6DC019E96ED011B821A8218
:10068000198280E886A7DF91CF9108952F923F923B
:100690004F925F926F927F928F929F92AF92BF9292
:1006A000CF92DF92EF92FF920F931F93CF93DF933E
:1006B000CDB7DEB728970FB6F894DEBF0FBECDBF1B
:1006C0002090CB013090CC014090CD015090CE01D4
:1006D000662477248824BEE4AB2EA3E8BA2ECC246B
:1006E000DD24EE24FF2400E010E0222D332D442DE4
:1006F000552D662D772D882D90E00E94AF17298308
:100700003A834B835C836D837E838F839887822EAD
:10071000932EA42EB52E2401350100E20E94AD18BF
:10072000A22EB32EC42ED52EC301B2019695879565
:10073000779567956A0D7B1D8C1D9D1D97FF05C0E4
:100740009F776F5F7F4F8F4F9F4F6093CB01709369
:10075000CC018093CD019093CE0128960FB6F894EA
:10076000DEBF0FBECDBFDF91CF911F910F91FF90E4
:10077000EF90DF90CF90BF90AF909F908F907F9041
:100780006F905F904F903F902F9008958FB7F8949F
:100790006091EA017091EB012CB53DB506B602FE01
:1007A00004C06F5F7F4F2CB53DB599278FBF882759
:1007B0009927CB017727662744275527622B732B70
:1007C000842B952B0895EF92FF920F931F930E9415
:1007D000C6037B018C012091D5013091D601409157
:1007E000D7015091D8018091D0019091D101A09171
:1007F000D201B091D301820F931FA41FB51FE2163F
:10080000F3060407150730F082179307A407B5070E
:1008100058F005C082179307A407B507E0F5E8165E
:10082000F9060A071B07B8F59C01AD012E193F090F
:10083000400B510B213060E8360760E0460760E06E
:10084000560768F180E090E8A0E0B0E0E80EF91EFD
:100850000A1F1B1FE092D501F092D6010093D70129
:100860001093D80180E090E8AFEFBFEFE80EF91EDB
:100870000A1F1B1F20503048404050402093D00199
:100880003093D1014093D2015093D30120E030E85E
:1008900040E050E014C020E030E040E050E08093C1
:1008A000D5019093D601A093D701B093D8011092AF
:1008B000D0011092D1011092D2011092D301A9015E
:1008C000B7012CB53DB5C9018E199F090396841750
:1008D000950720F0B9016D5F7F4F02C0640F751F4F
:1008E0006115710511F461E070E0615070407BBDED
:1008F0006ABD80E186BF87B7806187BF1F910F9176
:10090000FF90EF9008950F931F930FB7F89411275E
:100910006093D5017093D6018093D7019093D8014D
:100920002093D0013093D1014093D2015093D30151
:100930000E94E3030FBF1F910F91089597B79F7D0A
:1009400097BF90E296BF882319F08EB5806402C0ED
:100950008EB58F7B8EBD87B7806287BF80E090E0C9
:100960000895AF92BF92CF92DF92EF92FF920F93D2
:100970001F93CF93DF93CDB7DEB728970FB6F894C8
:10098000DEBF0FBECDBF20E070E0E0910001F0912E
:10099000010132E14DE65CE46FE4809101019E2F9C
:1009A00028960FB6F894DEBF0FBECDBFDF91CF9172
:1009B0001F910F91FF90EF90DF90CF90BF90AF907D
:1009C00008951F920F920FB60F9211248F9383B741
:1009D00083BF00B600FCFDCF8F910F900FBE0F902C
:1009E0001F90189578941F920F920FB60F921124B2
:1009F0000F900FBE0F901F90189578941F920F9232
:100A00000FB60F9211240F900FBE0F901F901895E4
:100A100078941F920F920FB60F9211242F933F9349
:100A20008F939F932FB7F89433278091EA01909189
:100A3000EB0101969093EB018093EA012FBF9F9108
:100A40008F913F912F910F900FBE0F901F9018958F
:100A50001F920F920FB60F9211240F900FBE0F909E
:100A60001F9018951F920F920FB60F9211240F909E
:100A70000FBE0F901F9018951F920F920FB60F92F6
:100A800011240F900FBE0F901F9018951F920F9278
:100A90000FB60F9211240F900FBE0F901F90189554
:100AA0001F920F920FB60F9211240F900FBE0F904E
:100AB0001F9018951F920F920FB60F9211240F904E
:100AC0000FBE0F901F9018951F920F920FB60F92A6
:100AD00011240F900FBE0F901F9018951F920F9228
:100AE0000FB60F9211242F933F934F935F936F9301
:100AF0007F938F939F93AF93BF93EF93FF9383B7AE
:100B000083BF00B600FCFDCF81B799270196AA27C5
:100B1000BB2720915C0130915D0140915E015091B5
:100B20005F01280F391F4A1F5B1F20935C01309320
:100B30005D0140935E0150935F0178940E945202E0
:100B4000FF91EF91BF91AF919F918F917F916F91A5
:100B50005F914F913F912F910F900FBE0F901F907B
:100B600018950F931F93182F0FB7F89461E080E04A
:100B70000E94B400882371F5109311018091140133
:100B80008823A9F580912401823089F588E00CC082
:100B90000E94EB0080912401882349F481E0809336
:100BA000240110928E018AE00E943D012AC08091AA
:100BB000D4018F3F31F5E0911301EE2311F11CC0F8
:100BC0001092120104C0FF27EC52FE4F10821092C7
:100BD000130117C081E090E002C0880F991F1A9599
:100BE000E2F720912301282B209323010AC0809152
:100BF00024018823E1F6CCCF809112018F3F19F7B1
:100C0000DFCF802F99278FBF80E090E01F910F9159
:100C1000089582E090E0909385018093840181E0C3
:100C20008093910120E030E080911101843011F433
:100C300021E030E0232B29F484E00E940001882386
:100C400019F40E942103089584E00E94B1050895DB
:100C50001F920F920FB60F9211242F933F934F9331
:100C60005F936F937F938F939F93AF93BF93EF9314
:100C7000FF938091840190918501019749F482E06E
:100C800090E090938501809384010E94090605C03D
:100C900080918D018F5F80938D01FF91EF91BF91C6
:100CA000AF919F918F917F916F915F914F913F9104
:100CB0002F910F900FBE0F901F9018951F9383E0F8
:100CC0000E9400019927182F882319F083E00E94C1
:100CD000B105812F99271F910895DF92EF92FF921E
:100CE0000F931F93D82E7A018B010E94060229E0F0
:100CF000D29EF0011124E451FE4F60837183828300
:100D00009383E482F58206831783808583608087DE
:100D10008DE00E943D011F910F91FF90EF90DF90B9
:100D200008950F931F93CF93DF938C01EB01809174
:100D3000FD0181FF03C080E090E060C04130F9F424
:100D400080911C01882309F057C040931C01E09159
:100D50000001F0910101EE0FFF1FE050FF4F4081B5
:100D600051816627772781E00E946D06A5E9B1E0F1
:100D7000FE0184E301900D928150E1F739C04230C9
:100D8000F1F480911D018823B9F581E080931D0164
:100D9000E0910001F0910101EE0FFF1FE050FF4FC5
:100DA00040815181662777270E946D06A5E9B1E051
:100DB000FE0184E301900D928150E1F719C04423B4
:100DC000D9F4E0910001F0910101EE0FFF1FE05016
:100DD000FF4F408151816627772781E00E946D0691
:100DE000A5E9B1E0FE0184E301900D928150E1F7A5
:100DF00010932C0100932B0181E090E0DF91CF91C3
:100E00001F910F910895CF92DF92EF92FF920F936F
:100E10001F93CF93DF938C01F62E6A01E22E8FB7DA
:100E2000F894C82FDD2760E080E00E94CE00882380
:100E300021F0CFBF80E090E01EC0CFBF0F0D111D8D
:100E4000802F80680E946401F82E16950795802FE8
:100E5000807C0E9464010E2D0AC0EE2DFF27E01B4E
:100E6000F109EC0DFD1D80810E94640101500023F9
:100E7000A1F78F2D9927DF91CF911F910F91FF90AF
:100E8000EF90DF90CF900895CF93DF93CDB7DEB78B
:100E90002C970FB6F894DEBF0FBECDBF8FB7F89476
:100EA000282FAE014F5F5F4FDA01E5E1F2E088E005
:100EB00001900D928150E1F7809192019091930100
:100EC0008987892F99278A878091D9019091DA01A2
:100ED0008B87892F99278C872FBF2CE060E080E6D5
:100EE00091E00E9403072C960FB6F894DEBF0FBE68
:100EF000CDBFDF91CF9108951F9380912301882367
:100F000009F04BC0109111011F3F09F046C060E08D
:100F10000E94CE00882309F440C081E080931E0225
:100F2000809174018823E1F110921E0285E090E027
:100F300045C0923069F5C09A8091120120E030E0FE
:100F40008F3F11F421E030E0232BE9F410931401DA
:100F50008F3F19F42FEF30E00DC0282F3327F90110
:100F6000EC52FE4F8081809312018F3F11F4109359
:100F70001301108320938E0181E0809324018AE085
:100F80000E943D0105C0109314011092240111C06C
:100F900080912401882369F00FC081E090E00EC0A9
:100FA0008091140190912401882319F2923021F04C
:100FB000EFCF80E00E94DF0080E090E01F91089575
:100FC0001F93CF93DF939FB7F894C92FDD271C2F72
:100FD00090911101981721F0CFBF81E090E03AC0C5
:100FE0008FEF80931101309123013323F1F48FB7F8
:100FF000F894992710920F028FBF0E947C07CFBFF1
:1010000011C02093110181E090E002C0880F991F68
:101010004A95E2F7809538233093230188E00E94B7
:101020003D011FBF80E090E015C080E065E0E32F48
:10103000FF270E943019292F492F5527CF01042E51
:1010400002C0959587950A94E2F780FDDACF822F4A
:101050008F5FEFCFDF91CF911F9108951F93CF93B3
:10106000DF938FB7F894C82FDD271C2F8091840160
:1010700090918501892B29F484E00E94E007CFBF7D
:101080001EC01092910180918D01882311F0B799B3
:1010900004C00E9908C0882319F0815080938D01F7
:1010A0000E9409060BC081E090E090938501809337
:1010B000840110928D0184E00E94E0071FBFDF9140
:1010C000CF911F910895FF920F931F93CF93DF93BA
:1010D000F82E8B018FB7F894C82FDD2760E080E0F1
:1010E0000E94CE00882321F0CFBF80E090E00CC0AA
:1010F000CFBF8F2D0E946401812F99270E94640128
:10110000802F0E9464019927DF91CF911F910F9149
:10111000FF9008951F931FB7F89480918C01882346
:1011200019F460E070E009C060E08091B6028823A5
:1011300009F461E081E06827772780919401882392
:1011400019F480E090E00AC090E0809114028823B6
:1011500009F491E081E09827892F9927762F662757
:10116000770F770F770F24E0880F991F2A95E1F703
:10117000826E9262682B792B81E10E946308812F35
:1011800099278FBF1F9108958FB7F8949927609181
:101190001D028FBF85E0689FB0011124625D7E4F04
:1011A000706488E10E9463080895EF92FF921F9394
:1011B000CF93DF93E090C901F090CA01F70182A5B7
:1011C0009927182F882309F41FE1C09880918A017C
:1011D000811749F0612F77276F717070606E7068AA
:1011E00085E10E94630810938A01F70110818FB78F
:1011F000F894C82FDD2760E080E00E94CE008823AD
:1012000011F0CFBF12C0CFBF8EE390E09093DE010C
:101210008093DD018EE30E9464011150412F552718
:1012200060E070E0C7010E94DE01DF91CF911F9165
:10123000FF90EF9008950F931F93CF93DF93EC01EE
:101240000FB7F89411270E947000FC018FE3808390
:101250000FBF1092B4021092B30261E082E00E94CC
:10126000B400882319F085E090E072C080911F02DD
:101270008F5F80931F0281508B838FB7F894082F64
:10128000112762E081E00E94CE00882329F40FBF7D
:101290000E94FF0181E05BC08FB7F894992724E09A
:1012A000209310028FBFD093E401C093E3010FBFDE
:1012B000FE013196818129819927982F882733272C
:1012C000822B932B80729C7C8983892F9927818321
:1012D0002981982F882733272164822B932B898398
:1012E000892F992781831CA618A619A619AA18AABE
:1012F0001FA680E88EA761E0609313024091E3018E
:101300005091E4018FB7F894282F3327809125015D
:10131000909126018830910511F0019711F02FBFAF
:1013200015C082E090E090932601809325016093A0
:10133000BE025093CA014093C90110925B012FBFB6
:101340000E945E06882311F40E94D50880E0992748
:10135000DF91CF911F910F910895CF93DF93DA0121
:10136000422F2D3118F082E090E05EC0ED018B87B6
:101370006E83872F99278F832FB7F8943327809117
:101380009201909193012FBFFD018483892F9927AA
:1013900085832FB7F894332780911501909116011A
:1013A0002FBF8887892F9927898731968181298145
:1013B0009927982F8827332720643868822B932B0E
:1013C0008983892F99278183435F4C934D50809166
:1013D0001801882359F010921801642FCD010E9442
:1013E0001B099927282F8823A9F417C0842F992730
:1013F0009093E2018093E101B0932A01A093290127
:101400008EE00E943D0180911801882349F489E013
:1014100090E00AC08FEF80931801822F992704C0B3
:101420001092CF0180E090E0DF91CF91089510926B
:101430001001E091E801F091E901309721F08091ED
:10144000B20280FF08C081E080931001089581E01E
:101450000E943D01089520812D5033276781772711
:10146000762F662786819927682B792BAF01838594
:101470000E94AD09882359F708951F93CF93DF93F6
:10148000142F809110018823A1F4C091E801D0911C
:10149000E901C617D70769F41092E9011092E80133
:1014A0000E94170AC559D14021F4112311F410925A
:1014B0001E01DF91CF911F910895AF92BF92CF92FD
:1014C000DF92EF92FF920F931F93CF93DF935B0115
:1014D0006C01C0E0D0E0ECEEF1E0608561FF7CC023
:1014E0002081318142815381E480F580068117811A
:1014F000D601C501821B930BA40BB50B8E159F055E
:10150000A007B10708F468C060FF03C06D7F608763
:1015100008C02E0D3F1D401F511F20833183428381
:101520005383C13021F0C23009F077C043C020910D
:101530002B0130912C0180911E01882309F06DC090
:1015400045E951E020939B01632F772760939C012D
:101550008AE08093A0018091E8019091E901892BB4
:1015600009F05BC05093E9014093E80181E1809369
:101570009501809110018823C9F0762F6627822F6C
:101580009927682B792B1092100124E08AE00E94A1
:10159000AD099927282F882349F081E08093100115
:1015A0001092E9011092E8012223B9F581E08093BD
:1015B0001E0133C080912F0190913001892B99F445
:1015C00081E08093890287E080938B0241E06DE7A0
:1015D00072E08FEF9FEF1FC021963996C330D1057F
:1015E00009F07BCF1AC080918B0299270E942D02AF
:1015F000809388014091890255279927FC01EE0FBD
:10160000FF1FE80FF91FEE0FFF1FE15DFE4F6DE7B3
:1016100072E0828193810E9491068DE00E943D01DB
:10162000DF91CF911F910F91FF90EF90DF90CF90BE
:10163000BF90AF9008951F93CF93DF93182F8FB76C
:10164000F894C82FDD2760E080E00E94CE00882358
:1016500021F0CFBF80E090E005C0CFBF812F0E9476
:1016600064019927DF91CF911F9108950E942B0368
:10167000C09AC09888E00E941B0B88E00E941B0B58
:10168000C09A84E00E94E0070E942E0808951F93EC
:10169000182F81E090E0909326018093250110920D
:1016A00074010E947C078FB7F894992710931F014B
:1016B0008FBF84E00E943D011F910895CF92DF9279
:1016C000EF92FF920F931F93CFB6F894DD240E9400
:1016D0004603DC01CB0166E470E00E943C192BE07C
:1016E000E22EF12CE80EF91EF092BB02E092BA0253
:1016F0000E94C60300271127A80197010E948304B6
:10170000CFBE1F910F91FF90EF90DF90CF90089583
:1017100061E081E00E94B4008823E9F48FB7F89477
:10172000282F33278091200190912101892B11F0DE
:101730002FBF20C081E090E0909321018093200191
:101740002FBFDD9A0E94C60324E130E040E050E064
:101750000E9483040FC062E081E00E94CE008823D3
:1017600019F089E090E0089561E081E00E94CE00E8
:10177000882319F080E090E0089585E090E00895D6
:101780001F93CF93DF938FB7F894C82FDD271C2FBB
:1017900080912501909126010897C9F489E00E9463
:1017A0001B0B83E00E94E007C09A81E090E09093D9
:1017B0002601809325018FB7F894992723E0209381
:1017C0001F018FBF84E00E943D01CFBF30C0C09891
:1017D0008091BE02882311F085E001C084E00E9460
:1017E0001B0B83FD09C080E00E941B0B83FF04C01C
:1017F00085E090E020E003C083E090E021E090935A
:10180000260180932501C09A1FBF222341F0109228
:101810005B0183E00E94E0070E945E0B08C00E940B
:10182000C60320E431E040E050E00E948304DF91F1
:10183000CF911F91089578941F920F920FB60F9237
:1018400011241F932F933F934F935F936F937F9335
:101850008F939F93AF93BF93EF93FF9387B78F7E41
:1018600087BF78941FB7F8948091D0019091D101EF
:10187000A091D201B091D3010097A105B10509F063
:1018800051C080912501909126018530910561F12B
:101890008630910530F48330910549F0049781F545
:1018A0001AC087309105F1F0089751F514C0869B56
:1018B0000FC084E090E090932601809325010E9460
:1018C000C60327E030E040E050E00E94830418C0E7
:1018D0000E945E0B15C00E945E06882389F40E9458
:1018E000C00B0EC080E00AC089E00E941B0B81E0A3
:1018F0000E949E0483E00E94E00787E00E94470B5D
:101900008091200190912101019771F482E090E093
:101910009093210180932001DE98DE9A80E00E945E
:10192000B10502C00E94E303812F99278FBFFF9169
:10193000EF91BF91AF919F918F917F916F915F9147
:101940004F913F912F911F910F900FBE0F901F90BD
:101950001895EF92FF920F931F93CF93DF938B0114
:101960008091DD019091DE0186FF40C18F7B8F3336
:1019700009F08EC1C0912D01D0912E015881509354
:10198000860180918401909185018530910509F44B
:1019900043C08630910509F48AC0029709F01FC13F
:1019A00085E090E0909385018093840140917201DD
:1019B000852F99270196242F3327281739074CF1B3
:1019C000B79906C00E9904C0451B4150409372015F
:1019D000409186014A32E8F44423A1F0BE016F5FD2
:1019E0007F4F483018F047E050E007C086E090E0B5
:1019F0009093850180938401552780E090E00E94B8
:101A0000DE0146C110929101C09A84E00E94E00775
:101A1000E3C00E94360B3CC186E090E090938501C4
:101A20008093840180919401882309F439C08091C6
:101A300014028823A9F5898185FF32C08F814E81E8
:101A40002FB7F89433276091D9017091DA012FBF35
:101A50009927982F88275527842B952B861797072A
:101A600059F08F812E819927982F88273327822B31
:101A7000932B8F5F9F4FA1F489818770813081F410
:101A8000C09AC0988AE00E941B0BC09AC0984091EF
:101A9000860147502896BE018FE30E94EF02F8C0EE
:101AA00040918601475055272896BE01A6CFC09A7F
:101AB00080918D01882339F484E00E94E0078091B1
:101AC0008D01882311F0B7990AC00E9B08C0909130
:101AD0007902992321F0809186018B3038F480912E
:101AE0002D0190912E010E9437033DC0913001F5E8
:101AF000E091B102FF27EE0FFF1FEE0FFF1FEB5D1E
:101B0000FD4F2081318142815381E0912D01F0917F
:101B10002E0121ABBB27A52F942F832F80ABCA01A9
:101B2000AA27BB2787A7252F33274427552726A772
:101B30008091B1029927019668E070E00E945019E7
:101B40008093B10280917902815080937902882339
:101B500051F080912D0190912E010E943703109237
:101B6000B1021092790280918601FE01E80FF11D09
:101B7000808187FF31C0012B79F169816770E09125
:101B80002D01F0912E01623019F5A091C901B0919B
:101B9000CA01109709F180912501909126010797BC
:101BA000D9F4ED019B8183819817B1F487B78F7EBB
:101BB00087BF908181E08CA7E90FF11D829131965A
:101BC00088A780818F7789A780E00E94470B04C097
:101BD000613011F48BE02AC00E942E0859C0109287
:101BE0009101C09A84E00E94E00752C08E3309F050
:101BF0004FC0C09A80912501909126010897C9F4A1
:101C0000C09889E00E941B0BC09A83E00E94E00705
:101C100081E090E090932601809325018FB7F8949E
:101C2000992723E020931F018FBF84E00E943D018C
:101C30002FC08091BE02882349F484E090E0909305
:101C40002601809325010E94C00B22C083E00E94E0
:101C5000E00783E090E090932601809325010E94A5
:101C60004603DC01CB0166E371E00E943C193BE0D6
:101C7000E32EF12CE80EF91EF0926D01E0926C015A
:101C80000E94C60300271127A80197010E94830420
:101C9000DF91CF911F910F91FF90EF9008951F92C8
:101CA0000F920FB60F9211242F933F934F935F9390
:101CB0006F937F938F939F93AF93BF93EF93FF9314
:101CC0002FB1E0910702F0910802309739F080912E
:101CD000E6019091E701E80FF91F20838091E6016A
:101CE0009091E70101969093E7018093E60180E0EF
:101CF0000E94E5004091590150915A018091E601FE
:101D00009091E7018417950718F40E9470011CC098
:101D100060910702709108028091B7029091B80219
:101D200010920802109207021092B8021092B702A5
:101D300010925A01109259011092E7011092E60197
:101D40002FB120E00E94A90CFF91EF91BF91AF91BC
:101D50009F918F917F916F915F914F913F912F91C3
:101D60000F900FBE0F901F901895AF92BF92CF9219
:101D7000DF92EF92FF920F931F93CF93DF93CDB734
:101D8000DEB7A8970FB6F894DEBF0FBECDBF873081
:101D900009F41EC1883090F4833009F4A0C0843067
:101DA00030F48130E9F1823008F046C01DC0853042
:101DB00009F4ECC0863008F004C197C08B3009F4F8
:101DC00034C28C3038F4893009F4F8C18A3008F014
:101DD00018C237C18D3009F4C3C48D3008F48DC4E6
:101DE0008E3009F03BC514C58091B202882309F4F6
:101DF00035C521E0E8EEF1E09091B202822F89230F
:101E000039F011821082822F809598239093B2022C
:101E1000329631E0E83FF30709F420C5220FECCFFA
:101E2000E0911001FF27EE0FFF1FE851FE4F1182D6
:101E300010820E94170A12C50FB7F894112781E08B
:101E40000E949E0441E0E42EF12CF0922601E092E3
:101E50002501109227011092740110928A010FBF80
:101E60000FB7F89411270E942B03F0928501E0929E
:101E700084011092910189B78F7B89BF80E488BF6C
:101E80008AB780628ABF8AB78F7E8ABF89B780642B
:101E900089BF0FBF8FB7F894082F112780912001B9
:101EA00090912101049719F483E00E941B0B0FBF4E
:101EB0000FB7F8941127C09A80E00E94E0070FBF87
:101EC0008FB7F894992722E0209310028FBF48E83B
:101ED00053E160E070E082E00E946D06BFC48FB7FE
:101EE000F89499271092100271C08FB7F89499272F
:101EF000F0901F018FBF63E081E00E94CE00882335
:101F000059F10FB7F894112710922601109225016C
:101F100087B78F7E87BF87B78F7D87BF83E00E949B
:101F2000E007C09A0FBF0FB7F894112710928501F0
:101F3000109284010E942B03C09A89B78F7B89BFBE
:101F40000FBF1092210110922001DE98DD98DE9AD9
:101F500083E00E943D0107C08FB7F894992722E0E3
:101F6000209310028FBF0091E3011091E4010E94C1
:101F7000FF018091B3029091B402892B09F06EC4E5
:101F80008FEF809318014F2DB80160C48FB7F8947C
:101F9000282F3327122F8091BC02882309F581E076
:101FA0008093BC028091200190912101049721F43B
:101FB00081E00E94B10503C086E00E943D011FBF81
:101FC0004DC48FB7F89499271092BC028FBF46C4B6
:101FD0008FB7F894282F332780912201882311F09E
:101FE0002FBF3CC42FBF80B3992736E096958795C5
:101FF0003A95E1F7182F11709091DB018091DC0187
:102000008917D9F01917C9F484E090E09093210161
:10201000809320018FB7F894992721E02093220123
:102020008FBF60E070E08DE10E9463080E9444076A
:10203000C09AC09882E00E943D011093DC0187E0C5
:102040006DC08FB7F8949927109111018FBF12308E
:1020500009F467C0133030F4112359F0113009F03E
:10206000FDC348C0133009F476C0143009F0F6C33C
:10207000A2C0C0988FB7F894082F11278091200133
:10208000909121010297A1F583E090E090932101C6
:102090008093200168E170E08DE10E94630881E097
:1020A0008093DB011092220180B3992726E0969558
:1020B00087952A95E1F7817090708093DC0187E025
:1020C0000E943D0181E00E941B0B6FE772E08CE1F2
:1020D0000E9463080E94C4080E948A0866E57AE2AA
:1020E00087E10E9463086FEF70E885E10E94630852
:1020F0000FBFB4C3C09886E00E941B0B0E94C408A7
:102100000E948A080E944407C09AC09883E00E94F7
:102110001B0BC09A81E00E94E00786E00E943D010F
:102120009DC3C0988FB7F894082F112760E080E016
:102130000E94CE00882311F00FBF0AC00FBF83E5B5
:102140000E94640180E00E94640180E00E946401BA
:10215000C09A82E02DC08FB7F8949927209125016D
:102160008FBF243039F0283041F0223001F50E9431
:10217000D50874C30E94C00B71C3C09889E00E9447
:102180001B0BC09A83E00E94E0078FB7F894992751
:1021900021E030E030932601209325018FBF8FB7D7
:1021A000F894992710931F018FBF84E0B7CF83E085
:1021B0000E94E00753C30E94210350C30FB7F89455
:1021C00011274091590150915A0160910702709175
:1021D00008028091B7029091B80210920802109202
:1021E00007021092B8021092B70210925A01109290
:1021F00059011092E7011092E60120E00E94A90C1B
:1022000077CF2FB7F894332780918E0180931401F4
:1022100082E0809324012FBF80911401882309F06C
:102220001DC3B89AC09888E079CFA0912D01B091D4
:102230002E01DC909D012D0D311DF9018081881F3B
:102240008827881FFD0183A7F90180818F77FD0111
:1022500081A721503040F9018081FD0180A7A09124
:102260002D01B0912E01FD0132818FB7F89499278D
:1022700020918C018FBF222309F490C0832F9927CE
:102280009695879596958795837090708230910585
:1022900041F5878146812FB7F89433276091D901A2
:1022A0007091DA012FBF9927982F88275527842B03
:1022B000952B8617970719F481E090E06CC0FD011B
:1022C0008781268140E050E09927982F882733277F
:1022D000822B932B8F5F9F4F11F441E050E0CA0196
:1022E0005AC0039709F000C29E012F5F3F4F45E19E
:1022F00052E088E0FA010190AF01F90101929F01DB
:102300008150C1F79E012F5D3F4FAE014F5F5F4F80
:1023100088E0FA010190AF01F90101929F0181501B
:10232000C1F79E01275F3F4FAE014F5D5F4F88E0D1
:10233000FA010190AF01F90101929F018150C1F7AB
:102340009E012F5E3F4FAE01475F5F4F88E0FA016D
:102350000190AF01F90101929F018150C1F79E01E7
:10236000275E3F4FAE014F5E5F4F88E0FA0101905C
:10237000AF01F90101929F018150C1F748E050E09F
:10238000BE01675E7F4FCD0106960E94B919892B69
:1023900009F0AAC103C0882309F4A6C1FCE0FD1519
:1023A00008F0A2C1E0902D01F0902E01F7012281EA
:1023B000822F9927F6E096958795FA95E1F703978E
:1023C00019F468E070E002C062E070E0822F9927A3
:1023D000969587959695879583709070039719F4D5
:1023E00088E090E002C082E090E026E030E0E20E7B
:1023F000F31E40E050E020E030E0F701E80FF91F65
:102400008AEF9FEFE80EF91E05C08191480F511D1C
:102410002F5F3F4F26173707C4F3F70163818FEF14
:102420008093B5028FB7F894782F20E030E0E0E693
:10243000F1E0808191818417950731F482818617BC
:1024400009F418C12093B5022F5F3F4F3396243013
:10245000310579F77FBF9091B5023FB7F8949F3F60
:1024600021F080912801891799F420912801822F69
:102470009927FC01EE0FFF1FE80FF91FE05AFE4FEE
:102480005183408362832F5F2370209328010CC007
:10249000892F9927FC01EE0FFF1FE80FF91FE05A63
:1024A000FE4F518340836283832F99278FBF0FB7DD
:1024B000F8941127C7010E947000FC0190810FBFA2
:1024C000F70183A5882309F40BC19F3309F008C1E4
:1024D000878146812FB7F894332760911501709159
:1024E00016012FBF9927982F88275527842B952BC6
:1024F0008617970761F0878126819927982F88276B
:102500003327822B932B8F5F9F4F09F0E9C0F70190
:1025100083858A3009F0E4C0F1E1DF1609F0E0C0FC
:102520008701045F1F4FF7018485BEE0CB2ED12CBD
:10253000CE0CDF1C9685813009F06BC0892F99275E
:102540000E942D0280932002893091F4F701868544
:10255000992720910001309101012817390741F096
:1025600010921C0141E0B7018FEF9FEF0E9491068E
:10257000D6018C91992720910001309101012817F3
:10258000390771F481E0F801838382E0808310923F
:102590001D0140815527B7018FEF9FEF0E949106E3
:1025A00080912002873008F09BC010928701109222
:1025B000090241E01EC0892F9927FC01EE0FFF1F81
:1025C000E80FF91FEE0FFF1FE15DFE4FD6018C9162
:1025D0009927208131812817390731F484818F5F51
:1025E000F801838340930902809187018F5F809374
:1025F000870190918701973020F480910902882308
:10260000D1F282E0D8018C9310921D014C91552794
:1026100062C0892F99270E942D0280932002893061
:1026200059F510928B0120E001C02F5F822F99276E
:10263000AC01440F551F480F591F440F551F415DF2
:102640005E4FFA0180819181892B79F720938B016C
:10265000D6018C91992791838083F80181819927F4
:10266000FA0193838283F80183819927FA01958384
:1026700084832AC07FBF34C01092730103C04F5FB0
:102680004093730140917301842F9927BC01660F19
:10269000771F680F791F660F771F615D7E4FD60128
:1026A0008C919927FB01208131812817390739F353
:1026B000F8018381282F3327FB0184819581281716
:1026C000390770F435832483F80183818F5F838316
:1026D00010921D0142E0B7018FEF9FEF0E9491061B
:1026E000F0922E01E0922D018FB7F8949927109265
:1026F00091018FBF0E942E08B1C08091890188236B
:1027000061F52091210230912202409123025091E3
:102710002402EFB7F894FF2760910B0270910C022E
:1027200080910D0290910E02E0906E01F0906F0189
:1027300000917001109171016E0D7F1D801F911F1E
:10274000EFBF209321023093220240932302509343
:102750002402109289010E94D5020E94060243C001
:102760000E9406025B016C018FB7F89499271092C2
:10277000E5018FBF8FEFE82E8FEFF82E8FEF082F38
:102780008FE7182F60E0ECEEF1E0808581FF1CC040
:1027900080819181A281B381A6019501281B390B0B
:1027A0004A0B5B0BDA01C9012481358146815781CF
:1027B000281B390B4A0B5B0B2E153F0540075107B1
:1027C0001CF479018A0161E0399632E0E730F307C1
:1027D000E1F6662309F442C01E141F041006110618
:1027E0002CF0C601B5010E945D0A38C0E0922102BA
:1027F000F0922202009323021093240281E080933E
:102800008901A8019701C601B5010E94D50226C021
:102810009091CF0180911801981701F190931801C0
:102820009923C9F40091290110912A016091E101D5
:10283000C8010E941B09482F5527442379F08FEFC8
:10284000809318016091290170912A01F801838514
:102850000E943D0A03C08FEF80931801A8960FB61F
:10286000F894DEBF0FBECDBFDF91CF911F910F91C6
:10287000FF90EF90DF90CF90BF90AF900895809140
:102880007A028F3FB1F0282F3327F901EB58FE4F22
:10289000808180937A028F3F11F48093BD028FEF85
:1028A00080832F3F31F0822F0E94B50E81E090E0AF
:1028B000089580E090E008951F93CF93DF93CDB704
:1028C000DEB7E0970FB6F894DEBF0FBECDBF1FB7DF
:1028D000F8944FE050E06FEF70E085E791E00E94E0
:1028E000C6198FEF80937A028093BD0281E08EBD7E
:1028F00088E080BF83E083BF8CB59DB54AE72CB5E7
:102900003DB52817390708F44150442311F0C90197
:10291000F6CF92B782B78917E9F32CB53DB592B7D8
:1029200082B78917E9F38CB59DB5821B930B40964E
:1029300065E0969587956A95E1F790937C02809380
:102940007B0213BE83B78EBD8EB580BF12BE1DBC89
:102950001CBC8FEF86BF86B780937C0080B7992719
:1029600087709070892BD1F7D29AD19AD09ADA9A3F
:10297000D99AD89A15BA8FEF84BBD498DC981DBC2D
:102980001CBC87B7846087BF8EB5887F84608EBD8E
:102990000E943F148823E1F78FEF80938F01E0E6D8
:1029A000F1E08FEF9FEF918380831282339621E0D5
:1029B000EC36F207C1F70E94460360931F02809134
:1029C0000001909101010196AA27BB278093CB01BA
:1029D0009093CC01A093CD01B093CE0180B78860D5
:1029E00080BF8BE083BF86EE81BF87B7826087BFE1
:1029F0000E94520285E492E090932E0180932D0173
:102A00008E98B89A8C988FEF8093D40110920F0211
:102A1000109210021092110210921202B89AD69AD5
:102A2000D59A8FB7F8949927209115013091160106
:102A30008FBF3093DA012093D9010E94B10429A7F6
:102A40003AA74BA75CA76DA77EA78FA798ABDE011F
:102A50009196FE01B99688E001900D928150E1F7C0
:102A6000DE015196FE01B19688E001900D928150F1
:102A7000E1F7DE015996FE01719688E001900D9212
:102A80008150E1F7A5E1B2E0FE01799688E001907E
:102A90000D928150E1F7809117019927909393014E
:102AA000809392018FE180930A028AE180931D0254
:102AB0000E94B10429A73AA74BA75CA76DA77EA7E0
:102AC0008FA798ABDE019196FE01B99688E0019040
:102AD0000D928150E1F7DE011196FE01B19688E07A
:102AE00001900D928150E1F7DE011996FE013196B9
:102AF00088E001900D928150E1F7A5E1B2E0FE017E
:102B0000399688E001900D928150E1F7A5E1B2E09D
:102B1000FD0137969C9180818D939083319782E05F
:102B2000E831F807B9F781E080938C011092B60282
:102B300080939401109214020E943F148823E1F7BD
:102B4000812F99278FBF78940E94880B8FB7F894B4
:102B5000482F55274BC087B7992783709070892BD2
:102B600019F4E5E0F0E013C080B799278770907002
:102B7000892BD1F781B792B7891B8C3030F082B79F
:102B8000853F18F4E3E0F0E002C0E2E0F0E087B750
:102B9000887BC1F480917D008B7FA1F46E9912C077
:102BA0008AB190919A00892B887161F480917400A8
:102BB00082FD08C0379B03C081E090E005C085E03E
:102BC00090E002C080E090E025B78E1708F4E82F6F
:102BD000FF27E457FF4FE491237E2062E22BE5BFFD
:102BE00078948895F89485B78F7D85BF80917A0217
:102BF0008F3F09F4B0CF282F3327F901EB58FE4F50
:102C0000808180937A028F3F11F48093BD028FEF11
:102C100080832F3F09F49FCF4FBF822F0E94B50EB4
:102C200095CF78941F920F920FB60F9211242F9286
:102C30003F924F925F926F927F928F929F92AF924C
:102C4000BF92CF92DF92EF92FF920F931F932F9339
:102C50003F934F935F936F937F938F939F93AF9324
:102C6000BF93CF93DF93EF93FF93C6B5D7B58FB7DD
:102C7000F894282E0E94C6039B012C1B3D0B442771
:102C800055272B013C01421A530A640A750A8091A8
:102C90002501909126018530910521F0069709F0D4
:102CA000E0C0BFC086E090E09093260180932501AC
:102CB00031E0332E309290011092270180E00E9483
:102CC0009E04E091C901F091CA0141AABB27A72D3A
:102CD000962D852D80ABC301AA27BB2787A7872DFB
:102CE0009927AA27BB2786A7E091C901F091CA01BD
:102CF00085A5882309F484C06081655077274F013A
:102D0000860E971EF4012081E1808281A38099279D
:102D1000AA27BB27BA2FA92F982F88273327442704
:102D20005527522F442733272227FF240027112716
:102D30008701FF24EE242E293F29402B512BBB2451
:102D4000CC24DD242A293B294C295D29822B932B75
:102D5000A42BB52B84199509A609B7098383292FBC
:102D60003A2F4B2F552722839D0144275527218336
:102D70008B2F9927AA27BB278083C09824E0A40122
:102D800080E090E00E940307C09AF4012081E18076
:102D90008281A3809927AA27BB27BA2FA92F982F12
:102DA0008827332744275527522F442733272227A4
:102DB000FF24002711278701FF24EE242E293F2915
:102DC000402B512BBB24CC24DD242A293B294C2920
:102DD0005D29822B932BA42BB52B840D951DA61D4D
:102DE000B71D8383292F3A2F4B2F552722839D010F
:102DF0004427552721838B2F9927AA27BB27808318
:102E0000E091C901F091CA01818185FF02C0309231
:102E1000740183E00E94E00787B78F7E87BF8499A3
:102E20007AC01092900181E00E949E04E091C90155
:102E3000F091CA01818185FF0FC087E090E09093F7
:102E40002601809325010E94C60320E031E040E086
:102E500050E00E94830403C080E00E94470B849BE3
:102E60005AC080912701882391F580919001882391
:102E700071F511E0109390010E949E0480B320919F
:102E80007902283098F4E091B102E20FFF27E77051
:102E9000F070EE0FFF1FEE0FFF1FEB5DFD4F408246
:102EA0005182628273822F5F2093790210932701EF
:102EB000D093E001C093DF0184992DC0992774E07D
:102EC000969587957A95E1F7182F117001C010E05B
:102ED000809190018130F9F4109290010E949E043B
:102EE000109227011123B9F48091DF019091E00144
:102EF000C81BD90B2A9778F480917902882319F09E
:102F00008150809379028091C9019091CA01009704
:102F100011F00E9437032FBEFF91EF91DF91CF9107
:102F2000BF91AF919F918F917F916F915F914F91E1
:102F30003F912F911F910F91FF90EF90DF90CF90D5
:102F4000BF90AF909F908F907F906F905F904F90C9
:102F50003F902F900F900FBE0F901F901895ACE2EE
:102F6000B0E0E5EBF7E10C948219222E332E442ECB
:102F7000552E662E772E882E992EFE013196A8E0CA
:102F80001192AA95E9F729823A824B825C826D827E
:102F90007E828F829886FE013996B8E01192BA95AA
:102FA000E9F7A986BA86CB86DC86ED86FE860F8792
:102FB000188B89819A81AB81BC8189A79AA7ABA71D
:102FC000BCA77C018D018FEF9FEFA0E0B0E0E8226D
:102FD000F9220A231B2389A59AA5ABA5BCA51D012F
:102FE0004424552489859A85AB85BC858DA39EA3F1
:102FF000AFA3B8A75C016D018FEF9FEFA0E0B0E039
:10300000A822B922CA22DB228DA19EA1AFA1B8A518
:103010003D0188249924C801B701A60195010E94A9
:10302000631969A37AA38BA39CA3C801B701A40168
:1030300093010E9463197B018C01C201B101A601B9
:1030400095010E9463195B016C01C201B101A401E9
:1030500093010E9463193B014C01EA0CFB1C0C1DFF
:103060001D1D89A19AA1ABA1BCA19D014427552793
:103070002E0D3F1D401F511F2A153B054C055D05B8
:1030800040F480E090E0A1E0B0E0680E791E8A1E76
:103090009B1ECA01AA27BB27860D971DA81DB91D17
:1030A0008D8F9E8FAF8FB8A3A9013327222789A1C7
:1030B0009AA1ABA1BCA1A070B070280F391F4A1F04
:1030C0005B1F298F3A8F4B8F5C8FA98CBA8CCB8C6E
:1030D000DC8CED8CFE8C0F8D18A1FE01719698E0B2
:1030E00011929A95E9F7ED8AFE8A0F8B188F2D8140
:1030F0003E814F8158856DA17EA18FA198A50E9428
:1031000063193B014C012D853E854F85588969A582
:103110007AA58BA59CA50E9463192D893E894F89AC
:10312000588D260F371F481F591F260D371D481D64
:10313000591D2D8B3E8B4F8B588F6D887E888F88C5
:10314000988C2A2D3B2D4C2D5D2D662D772D882DAD
:10315000992DE2E1AC960C949E19A0E1B0E0E3EB6E
:10316000F8E10C948219222E332E442E552E662E11
:10317000772E882E992E002309F466C088E0FE0180
:10318000319611928A95E9F729833A834B835C83C0
:103190006D837E838F829887E0E2E01B1E16CCF55C
:1031A0002D813E814F815885602F772767FD70956F
:1031B000DA01C901062E04C0B695A79597958795A3
:1031C0000A94D2F78D879E87AF87B88B04C0220FF1
:1031D000331F441F551FEA95D2F789819A81AB812D
:1031E000BC8104C0B695A795979587956A95D2F747
:1031F000282B392B4A2B5B2B29873A874B875C87F7
:1032000029843A844B845C846D847E848F8498887E
:103210001BC01D861E861F86188A2E2F332727FD6A
:103220003095309521953F4F8D819E81AF81B88536
:1032300004C0B695A795979587952A95D2F7898763
:103240009A87AB87BC87DCCF222D332D442D552D9B
:10325000662D772D882D992DE2E160960C949E19AC
:10326000991B79E004C0991F961708F0961B881FD8
:103270007A95C9F780950895AA1BBB1B51E107C039
:10328000AA1FBB1FA617B70710F0A61BB70B881FF6
:10329000991F5A95A9F780959095BC01CD01089585
:1032A00097FB092E07260AD077FD04D0E5DF06D06C
:1032B00000201AF4709561957F4F0895F6F7909568
:1032C00081959F4F0895629FD001739FF001829F67
:1032D000E00DF11D649FE00DF11D929FF00D839FA5
:1032E000F00D749FF00D659FF00D9927729FB00D42
:1032F000E11DF91F639FB00DE11DF91FBD01CF0155
:10330000112408952F923F924F925F926F927F9275
:103310008F929F92AF92BF92CF92DF92EF92FF92E5
:103320000F931F93CF93DF93CDB7DEB7CA1BDB0B91
:103330000FB6F894DEBF0FBECDBF09942A88398836
:1033400048885F846E847D848C849B84AA84B9843D
:10335000C884DF80EE80FD800C811B81AA81B98149
:10336000CE0FD11D0FB6F894DEBF0FBECDBFED015D
:103370000895FB01DC0104C08D910190801921F4B6
:1033800041505040C8F7881B990B0895DC0101C0DB
:0C3390006D9341505040E0F70895FFCFCE
:10339C0001003D00AD000B017301DF014702B102DA
:0C33AC0001FFFFFFFF010022FFFFFF00F8
:00000001FF
